:100000000C9434000C943E000C943E000C943E0082
:100010000C943E000C943E000C943E000C943E0068
:100020000C943E000C943E000C943E000C943E0058
:100030000C943E000C943E000C943E000C943E0048
:100040000C943E000C943E000C943E000C943E0038
:100050000C943E000C943E000C943E000C943E0028
:100060000C943E000C943E0011241FBECFEFD4E050
:10007000DEBFCDBF0E946D000C947E000C9400008A
:10008000EAE7F0E08081806880830895ECE7F0E0A3
:10009000808180648083569A089584B5836084BD8E
:1000A00084B5806884BD85B5846085BD17BC08951E
:1000B00090917C008F70907F892B80937C00809141
:1000C0007A00806480937A0080917A0086FFFCCF6A
:1000D000809178009091790008950E9446000E94D6
:1000E00040000E944D0080E00E94580087BD83ECD4
:1000F00099E00197F1F700C00000F5CFF894FFCF29
:00000001FF
