:100000000C9434000C943E000C943E000C94400080
:100010000C943E000C943E000C943E000C943E0068
:100020000C943E000C943E000C943E000C943E0058
:100030000C943E000C943E000C943E000C943E0048
:100040000C943E000C943E000C943E000C943E0038
:100050000C943E000C943E000C943E000C943E0028
:100060000C943E000C943E0011241FBECFEFD4E050
:10007000DEBFCDBF0E945B000C9461000C940000B9
:100080001F920F920FB60F9211248F9383B18F910D
:100090000F900FBE0F901F90189581E084B982E0F9
:1000A00085B9089582E080936B00E8E6F0E08081F6
:1000B0008160808308950E944D000E9452007894D0
:0600C000FFCFF894FFCF12
:00000001FF
