:100000000C9434000C9451000C9451000C94510049
:100010000C9451000C9451000C9451000C9451001C
:100020000C9451000C9451000C9451000C9451000C
:100030000C9451000C9451000C9451000C945100FC
:100040000C9451000C9451000C9451000C945100EC
:100050000C9451000C9451000C9451000C945100DC
:100060000C9451000C94510011241FBECFEFD4E02A
:10007000DEBFCDBF11E0A0E0B1E0EAE1F9E002C0EF
:1000800005900D92A033B107D9F721E0A0E3B1E0CC
:1000900001C01D92A733B207E1F70E9490010C94B2
:1000A0008B040C94000095B182958F70907F892B02
:1000B00085B90895CF93C82F0E9453002C9A2D988C
:1000C0002E9A2E988C2F8295807F0E9453002E9A14
:1000D0002E9885E88A95F1F70000CF9108950C9449
:1000E0005A00CF93DF93EC018991882319F00E9485
:1000F0005A00FACFDF91CF910895CF93C82F0E9475
:1001000053002C982D982E9A2E988C2F8295807FB4
:100110000E9453002E9A2E9885E88A95F1F70000E8
:10012000CF91089581E00E947D008FE99FE00197C3
:10013000F1F700C00000089582E00E947D008FE981
:100140009FE00197F1F700C0000008950F931F93FF
:10015000CF93DF938C01C0E0D0E0C017D1072CF41F
:1001600088E10E947D002196F8CFDF91CF911F9109
:100170000F9108950F931F93CF93DF938C01C0E0ED
:10018000D0E0C017D1072CF48CE10E947D002196AD
:10019000F8CFDF91CF911F910F9108950F931F9387
:1001A000CF93DF938C01C0E0D0E0C017D1072CF4CF
:1001B00080E10E947D002196F8CFDF91CF911F91C1
:1001C0000F9108950F931F93CF93DF938C01C0E09D
:1001D000D0E0C017D1072CF484E10E947D00219665
:1001E000F8CFDF91CF911F910F91089580680C9403
:1001F0007D00813011F480E803C0823019F480EC76
:100200000C947D0008950E9453002C982D982E9AEE
:100210002E980895809130018F6084B92C982D9A82
:100220002E9A85B120E1829FC00111242E982E9A2A
:1002300025B12E989091300194B940E1249F90010E
:100240001124332794E0359527959A95E1F7822B71
:100250000895E0913301F09134018FE690E09187A9
:1002600080871386128682E083831586148684B184
:100270008F60809330018FE295E70197F1F700C01E
:10028000000080E30E9403018FE097E20197F1F7FD
:1002900000C0000080E30E9403018FEE90E0019710
:1002A000F1F700C0000080E30E9403018FEE90E0B0
:1002B0000197F1F700C0000080E20E94030195E879
:1002C0009A95F1F700008CE20E947D0088E00E9480
:1002D0007D000E94920086E00E947D008CE00C94DC
:1002E0007D00811102C080E201C080E3611188605D
:1002F000411184600C947D00811102C084E001C032
:1003000086E0611181600C947D00811102C088E05B
:1003100001C08CE061118260411181600C947D000C
:100320008FEF84B90E94290180E091E00E94710062
:100330002FEF83ED90E3215080409040E1F700C023
:1003400000000DE011E0CEE1D1E02FEF89E698E169
:10035000215080409040E1F700C000000E949200D0
:100360001F930F930E94C8012FEF89E698E1215057
:1003700080409040E1F700C000000E949200DF93AF
:10038000CF930E94C8010F900F900F900F90DDCF78
:10039000A0E0B0E0EEECF1E00C946404FE013596D0
:1003A00061917191AF0180913301909134010E946C
:1003B000DC01E2E00C948004ACE0B0E0E2EEF1E0BD
:1003C0000C9454047C016B018A01FC011782168293
:1003D000838181FFBDC1CE0101964C01F70193815C
:1003E000F60193FD859193FF81916F01882309F4B4
:1003F000ABC1853239F493FD859193FF81916F01F3
:10040000853229F4B70190E00E94C403E7CF512C54
:10041000312C20E02032A0F48B3269F030F48032AD
:1004200059F0833269F420612CC08D3239F0803369
:1004300039F4216026C02260246023C0286021C0D6
:1004400027FD27C030ED380F3A3078F426FF06C07C
:10045000FAE05F9E300D1124532E13C08AE0389EBF
:10046000300D1124332E20620CC08E3221F426FD73
:100470006BC1206406C08C3611F4206802C0883637
:1004800041F4F60193FD859193FF81916F018111F4
:10049000C1CF982F9F7D9554933028F40C5F1F4F48
:1004A000FFE3F9830DC0833631F0833771F0833574
:1004B00009F05BC022C0F801808189830E5F1F4F65
:1004C00044244394512C540115C03801F2E06F0EBE
:1004D000711CF801A080B18026FF03C0652D70E07B
:1004E00002C06FEF7FEFC5012C870E94B9032C017A
:1004F00083012C852F77222E17C03801F2E06F0E72
:10050000711CF801A080B18026FF03C0652D70E04A
:1005100002C06FEF7FEFC5012C870E94AE032C0154
:100520002C852068222E830123FC1BC0832D90E0A4
:1005300048165906B0F4B70180E290E00E94C40367
:100540003A94F4CFF50127FC859127FE81915F0154
:10055000B70190E00E94C40331103A94F1E04F1AC1
:1005600051084114510471F7E5C0843611F0893601
:1005700039F5F80127FF07C060817181828193817D
:100580000C5F1F4F08C060817181882777FD8095BF
:10059000982F0E5F1F4F2F76B22E97FF09C09095B0
:1005A0008095709561957F4F8F4F9F4F2068B22E39
:1005B0002AE030E0A4010E94F603A82EA81844C047
:1005C000853729F42F7EB22E2AE030E025C0F22FA5
:1005D000F97FBF2E8F36C1F018F4883579F0B4C09A
:1005E000803719F0883721F0AFC02F2F2061B22E4D
:1005F000B4FE0DC08B2D8460B82E09C024FF0AC044
:100600009F2F9660B92E06C028E030E005C020E19B
:1006100030E002C020E132E0F801B7FE07C060819F
:100620007181828193810C5F1F4F06C0608171814F
:1006300080E090E00E5F1F4FA4010E94F603A82EF9
:10064000A818FB2DFF77BF2EB6FE0BC02B2D2E7FDB
:10065000A51450F4B4FE0AC0B2FC08C02B2D2E7EA7
:1006600005C07A2C2B2D03C07A2C01C0752C24FFD9
:100670000DC0FE01EA0DF11D8081803311F4297E49
:1006800009C022FF06C07394739404C0822F867839
:1006900009F0739423FD13C020FF06C05A2C731475
:1006A00018F4530C5718732C731468F4B70180E2D4
:1006B00090E02C870E94C40373942C85F5CF7314AB
:1006C00010F4371801C0312C24FF12C0B70180E3A9
:1006D00090E02C870E94C4032C8522FF17C021FFC5
:1006E00003C088E590E002C088E790E0B7010CC045
:1006F000822F867859F021FD02C080E201C08BE292
:1007000027FD8DE2B70190E00E94C403A51438F4E0
:10071000B70180E390E00E94C4035A94F7CFAA94F3
:10072000F401EA0DF11D8081B70190E00E94C4033D
:10073000A110F5CF332009F451CEB70180E290E04B
:100740000E94C4033A94F6CFF7018681978102C0D4
:100750008FEF9FEF2C96E2E10C947004FC01059062
:10076000615070400110D8F7809590958E0F9F1FB3
:100770000895FC016150704001900110D8F78095F8
:1007800090958E0F9F1F08950F931F93CF93DF9324
:10079000182F092FEB018B8181FD03C08FEF9FEF95
:1007A00020C082FF10C04E815F812C813D814217A5
:1007B00053077CF4E881F9819F012F5F3F4F398314
:1007C0002883108306C0E885F985812F0995892B38
:1007D00029F72E813F812F5F3F4F3F832E83812F4B
:1007E000902FDF91CF911F910F910895FA01AA27C1
:1007F000283051F1203181F1E8946F936E7F6E5F64
:100800007F4F8F4F9F4FAF4FB1E03ED0B4E03CD011
:10081000670F781F891F9A1FA11D680F791F8A1FF4
:10082000911DA11D6A0F711D811D911DA11D20D05B
:1008300009F468943F912AE0269F11243019305D15
:100840003193DEF6CF010895462F4770405D419306
:10085000B3E00FD0C9F7F6CF462F4F70405D4A3353
:1008600018F0495D31FD4052419302D0A9F7EACF1B
:10087000B4E0A6959795879577956795BA95C9F74A
:1008800000976105710508959B01AC010A2E06943D
:100890005795479537952795BA95C9F7620F731FF6
:1008A000841F951FA01D08952F923F924F925F9233
:1008B0006F927F928F929F92AF92BF92CF92DF9270
:1008C000EF92FF920F931F93CF93DF93CDB7DEB7D5
:1008D000CA1BDB0B0FB6F894DEBF0FBECDBF099469
:1008E0002A88398848885F846E847D848C849B84C0
:1008F000AA84B984C884DF80EE80FD800C811B81CE
:10090000AA81B981CE0FD11D0FB6F894DEBF0FBEFC
:0A091000CDBFED010895F894FFCF6C
:10091A0048656C6C6F20576F726C6421004C4344BD
:10092A0020446973706C61792054657374004121A5
:10093A0023242627282927402B2A3C3E3F7D0000D6
:00000001FF
