:100000000C9434000C943E000C943E000C943E0082
:100010000C943E000C943E000C943E000C943E0068
:100020000C943E000C943E000C943E000C943E0058
:100030000C943E000C943E000C943E000C943E0048
:100040000C943E000C943E000C943E000C943E0038
:100050000C943E000C943E000C943E000C943E0028
:100060000C943E000C943E0011241FBECFEFD4E050
:10007000DEBFCDBF0E9460000C9473000C940000A2
:10008000ECE7F0E0808180648083EAE7F0E0808143
:100090008068808382E080937E00089581E084B947
:1000A00017B8089580917A00806480937A008091D7
:1000B0007A0086FFFCCF80917800909179000895B6
:1000C0000E944E000E9440000E9452008115924002
:1000D00014F0289A01C0289883EC99E00197F1F771
:0A00E00000C00000F1CFF894FFCF3C
:00000001FF
