:100000000C9434000C943E000C943E000C943E0082
:100010000C943E000C943E000C943E000C943E0068
:100020000C943E000C943E000C943E000C943E0058
:100030000C943E000C943E000C943E000C943E0048
:100040000C943E000C943E000C943E000C943E0038
:100050000C943E000C943E000C943E000C943E0028
:100060000C943E000C943E0011241FBECFEFD4E050
:10007000DEBFCDBF0E944D000C945E000C940000CA
:10008000569A089584B5836084BD84B5806884BD24
:1000900085B5846085BD17BC08950E9440000E940C
:1000A000420080E087BD865F2FE936E891E021506D
:1000B00030409040E1F700C00000F4CFF894FFCF4B
:00000001FF
