:100000000C9434000C943E000C943E000C943E0082
:100010000C943E000C943E000C943E000C943E0068
:100020000C943E000C943E000C943E000C943E0058
:100030000C943E000C943E000C943E000C943E0048
:100040000C943E000C943E000C943E000C943E0038
:100050000C943E000C943E000C943E000C943E0028
:100060000C943E000C943E0011241FBECFEFD4E050
:10007000DEBFCDBF0E9440000C9451000C940000E4
:1000800081E084B982E085B991E01999FECF85B10C
:10009000892785B9E7EAF1E63197F1F700C000005A
:0600A000F4CFF894FFCF3D
:00000001FF
