:100000000C9434000C9451000C9451000C94510049
:100010000C9451000C9451000C9451000C9451001C
:100020000C9451000C9451000C9451000C9451000C
:100030000C9451000C9451000C9451000C945100FC
:100040000C9451000C9451000C94CC000C94EE00D4
:100050000C9451000C9451000C9451000C945100DC
:100060000C9451000C94510011241FBECFEFD4E02A
:10007000DEBFCDBF11E0A0E0B1E0EEE1F9E002C0EB
:1000800005900D92A43EB107D9F722E0A4EEB1E0AD
:1000900001C01D92A132B207E1F70E94A0010C94A9
:1000A0008D040C9400008FEF84B987B98CEF8AB966
:1000B0001BB80E94A600789408959091E4019111D4
:1000C000FCCF9091C1009F7D9093C100E091E80129
:1000D00091E09E0F9093E801F0E0E751FE4F80839E
:1000E0008091E801893110F01092E8019091E801C7
:1000F0008091E701981303C081E08093E40180912F
:10010000C10080628093C10008959091E5018091C3
:10011000E6019817D1F38091C1008F778093C100D9
:10012000E091E50181E08E0F8093E501F0E0EE5F64
:10013000FD4F80819091E501993110F01092E50119
:100140009091C10090689093C100089580E191E082
:1001500090931E0280931D029093200280931F02B1
:1001600082E091E090931C0280931B02E1ECF0E0AE
:100170001082A2ECB0E01C928081806A80838C9116
:1001800086608C9383E390E09093C5008093C400D5
:1001900080818861808308951F920F920FB60F921D
:1001A00011248F93EF93FF93E091E60181E08E0F8E
:1001B0008093E601F0E08091C600EE5FFD4F808302
:1001C0008091E601893110F01092E601FF91EF91E4
:1001D0008F910F900FBE0F901F9018951F920F9246
:1001E0000FB60F9211248F939F93EF93FF938091FB
:1001F000E401811106C09091E7018091E801981710
:10020000A9F0E091E70181E08E0F8093E701F0E033
:10021000E751FE4F80818093C6008091E7018931CC
:1002200010F01092E7011092E40105C08091C10026
:100230008F7D8093C100FF91EF919F918F910F90DF
:100240000FBE0F901F9018959091C1009F7D9093C5
:10025000C1009091E401911119C0E091E80191E091
:100260009E0F9093E801F0E0E751FE4F808380916C
:10027000E801893110F01092E8019091E801809135
:10028000E701981303C081E08093E4018091C100ED
:1002900080628093C10008958091C1008F77809320
:1002A000C1009091E5018091E601981789F0E091F5
:1002B000E50181E08E0F8093E501F0E0EE5FFD4FF8
:1002C00080819091E501993120F01092E50101C003
:1002D0008FEF9091C10090689093C1000895CF93E3
:1002E000DF93EC018991882319F00E945D00FACF19
:1002F0008DE00E945D008AE0DF91CF910C945D005B
:100300002091E5019091E60181E0291301C080E090
:1003100008958091E7019091E801891B87FF02C051
:10032000875EFCCF08958091C00087FFFCCF80914D
:10033000C6009091C00095FFFCCF8093C600F3CF1C
:100340000E9453000E9480018823E1F3CEE1D1E0B6
:1003500010E22FEF83ED90E3215080409040E1F7D1
:1003600000C0000080910001909101010E946F0186
:100370000E948001882351F0DF93CF930E94CA012D
:100380000E94850085B90F900F90F2CF88B1812728
:1003900088B9DFCFA0E0B0E0E0EDF1E00C946604B6
:1003A000FE01359661917191AF0180911D0290918E
:1003B0001E020E94DE01E2E00C948204ACE0B0E098
:1003C000E4EEF1E00C9456047C016B018A01FC011F
:1003D00017821682838181FFBDC1CE0101964C0137
:1003E000F7019381F60193FD859193FF81916F0150
:1003F000882309F4ABC1853239F493FD859193FFCD
:1004000081916F01853229F4B70190E00E94C60303
:10041000E7CF512C312C20E02032A0F48B3269F050
:1004200030F4803259F0833269F420612CC08D326F
:1004300039F0803339F4216026C02260246023C063
:10044000286021C027FD27C030ED380F3A3078F4FE
:1004500026FF06C0FAE05F9E300D1124532E13C014
:100460008AE0389E300D1124332E20620CC08E326B
:1004700021F426FD6BC1206406C08C3611F420687F
:1004800002C0883641F4F60193FD859193FF819176
:100490006F018111C1CF982F9F7D9554933028F41F
:1004A0000C5F1F4FFFE3F9830DC0833631F08337B4
:1004B00071F0833509F05BC022C0F8018081898327
:1004C0000E5F1F4F44244394512C540115C0380132
:1004D000F2E06F0E711CF801A080B18026FF03C00E
:1004E000652D70E002C06FEF7FEFC5012C870E9481
:1004F000BB032C0183012C852F77222E17C03801D6
:10050000F2E06F0E711CF801A080B18026FF03C0DD
:10051000652D70E002C06FEF7FEFC5012C870E9450
:10052000B0032C012C852068222E830123FC1BC0E4
:10053000832D90E048165906B0F4B70180E290E0B0
:100540000E94C6033A94F4CFF50127FC859127FE5B
:1005500081915F01B70190E00E94C60331103A9487
:10056000F1E04F1A51084114510471F7E5C0843687
:1005700011F0893639F5F80127FF07C060817181D4
:10058000828193810C5F1F4F08C060817181882731
:1005900077FD8095982F0E5F1F4F2F76B22E97FF15
:1005A00009C090958095709561957F4F8F4F9F4FB3
:1005B0002068B22E2AE030E0A4010E94F803A82EA1
:1005C000A81844C0853729F42F7EB22E2AE030E0E7
:1005D00025C0F22FF97FBF2E8F36C1F018F4883571
:1005E00079F0B4C0803719F0883721F0AFC02F2FD1
:1005F0002061B22EB4FE0DC08B2D8460B82E09C0D0
:1006000024FF0AC09F2F9660B92E06C028E030E074
:1006100005C020E130E002C020E132E0F801B7FE81
:1006200007C060817181828193810C5F1F4F06C07A
:100630006081718180E090E00E5F1F4FA4010E94F5
:10064000F803A82EA818FB2DFF77BF2EB6FE0BC00F
:100650002B2D2E7FA51450F4B4FE0AC0B2FC08C0A6
:100660002B2D2E7E05C07A2C2B2D03C07A2C01C099
:10067000752C24FF0DC0FE01EA0DF11D8081803331
:1006800011F4297E09C022FF06C07394739404C03C
:10069000822F867809F0739423FD13C020FF06C0D3
:1006A0005A2C731418F4530C5718732C731468F4E1
:1006B000B70180E290E02C870E94C60373942C85DA
:1006C000F5CF731410F4371801C0312C24FF12C079
:1006D000B70180E390E02C870E94C6032C8522FF9F
:1006E00017C021FF03C088E590E002C088E790E0D2
:1006F000B7010CC0822F867859F021FD02C080E23C
:1007000001C08BE227FD8DE2B70190E00E94C60395
:10071000A51438F4B70180E390E00E94C6035A9410
:10072000F7CFAA94F401EA0DF11D8081B70190E0A2
:100730000E94C603A110F5CF332009F451CEB701B2
:1007400080E290E00E94C6033A94F6CFF7018681DA
:10075000978102C08FEF9FEF2C96E2E10C94720418
:10076000FC010590615070400110D8F7809590957C
:100770008E0F9F1F0895FC01615070400190011081
:10078000D8F7809590958E0F9F1F08950F931F9314
:10079000CF93DF93182F092FEB018B8181FD03C0CD
:1007A0008FEF9FEF20C082FF10C04E815F812C81B0
:1007B0003D81421753077CF4E881F9819F012F5F47
:1007C0003F4F39832883108306C0E885F985812F40
:1007D0000995892B29F72E813F812F5F3F4F3F835A
:1007E0002E83812F902FDF91CF911F910F9108952C
:1007F000FA01AA27283051F1203181F1E8946F9352
:100800006E7F6E5F7F4F8F4F9F4FAF4FB1E03ED0F7
:10081000B4E03CD0670F781F891F9A1FA11D680F95
:10082000791F8A1F911DA11D6A0F711D811D911DC8
:10083000A11D20D009F468943F912AE0269F11243D
:100840003019305D3193DEF6CF010895462F4770A1
:10085000405D4193B3E00FD0C9F7F6CF462F4F70FC
:10086000405D4A3318F0495D31FD4052419302D05A
:10087000A9F7EACFB4E0A695979587957795679500
:10088000BA95C9F700976105710508959B01AC0100
:100890000A2E06945795479537952795BA95C9F727
:1008A000620F731F841F951FA01D08952F923F9202
:1008B0004F925F926F927F928F929F92AF92BF9270
:1008C000CF92DF92EF92FF920F931F93CF93DF931C
:1008D000CDB7DEB7CA1BDB0B0FB6F894DEBF0FBE79
:1008E000CDBF09942A88398848885F846E847D84C6
:1008F0008C849B84AA84B984C884DF80EE80FD80C8
:100900000C811B81AA81B981CE0FD11D0FB6F8943D
:0E091000DEBF0FBECDBFED010895F894FFCFFE
:10091E00270100000001000000000000850000001B
:10092E0000000002000000005D0000000000726583
:10093E006365697665640048656C6C6F20576F72ED
:10094E006C642120546869732070726F6772616DD8
:10095E0020697320746865207561727420636F6DF1
:10096E006D756E69636174696F6E20746573742042
:10097E0066726F6D206176722E20596F75206361DD
:10098E006E2073656E64207468652073656E746581
:10099E006E63652077686F7365206C656E6774682B
:1009AE00206973206F766572207468652073656E9A
:1009BE0064206275666665722073697A65202C20E4
:1009CE00627574206966207468656E202C206974C7
:1009DE002074616B6573206D6F72652074696D652F
:1009EE00207468616E2069662069742069736E27B1
:0409FE00742E000053
:00000001FF
