:100000000C9434000C9446000C9446000C9446006A
:100010000C9446000C9446000C9446000C94460048
:100020000C9446000C9446000C9446000C94460038
:100030000C9446000C9446000C9446000C94460028
:100040000C9446000C9446000C94D1000C94F300E0
:100050000C9446000C9446000C9446000C94460008
:100060000C9446000C94460011241FBECFEFD4E040
:10007000DEBFCDBF21E0A0E0B1E001C01D92A733FB
:10008000B207E1F70E943E020C9447020C94000074
:100090003A98EEE7F0E08081846080833B9880812D
:1000A0008860808384B1866084B98AB180668AB9A9
:1000B00087B1836087B984B1896184B98AB18C685A
:1000C0008AB988B18C7F88B985B1867E85B98BB1B4
:1000D00083778BB98AB18C7F8AB98BB18C7F8BB9CE
:1000E0000E94BB0078940895882329F03CF0880F83
:1000F000990B019608958FEF90E0089580E090E0CD
:100100000895882349F09FE7980F9F3740F490E0C7
:10011000880F991F019608958FEF90E0089580E071
:1001200090E008950E94D701833024F188B191E0D6
:10013000892788B981E40E9429018FE19EE4019713
:10014000F1F700C0000082E40E9429018FE19EE4E3
:100150000197F1F700C0000083E40E9429010E948A
:100160007901803439F40E9479010E94790183E594
:100170000C9429010895E1ECF0E01082A2ECB0E0CB
:100180001C928081806A80838C9186608C9383E34B
:1001900090E09093C5008093C40080818861808343
:1001A00008951F920F920FB60F9211248F93EF9321
:1001B000FF93E091020181E08E0F80930201F0E055
:1001C0008091C600E75EFE4F8083809102018E31F0
:1001D00010F010920201FF91EF918F910F900FBEDE
:1001E0000F901F9018951F920F920FB60F92112427
:1001F0008F939F93EF93FF9380910001811106C02D
:1002000090910301809104019817A9F0E0910301F6
:1002100081E08E0F80930301F0E0EB5FFE4F808161
:100220008093C60080910301843110F01092030185
:100230001092000105C08091C1008F7D8093C100A4
:10024000FF91EF919F918F910F900FBE0F901F9094
:100250001895909100019111FCCF9091C1009F7D64
:100260009093C100E091040191E09E0F90930401EE
:10027000F0E0EB5FFE4F808380910401843110F049
:10028000109204019091040180910301981303C01E
:1002900081E0809300018091C10080628093C10061
:1002A00008959091C1009F7D9093C10090910001AD
:1002B000911119C0E091040191E09E0F9093040107
:1002C000F0E0EB5FFE4F808380910401843110F0F9
:1002D000109204019091040180910301981303C0CE
:1002E00081E0809300018091C10080628093C10011
:1002F000089590910101809102019817D1F38091A6
:10030000C1008F778093C100E091010181E08E0FE1
:1003100080930101F0E0E75EFE4F80819091010142
:100320009E3110F0109201019091C100906890935D
:10033000C10008958091C1008F778093C100909192
:10034000010180910201981789F0E091010181E09B
:100350008E0F80930101F0E0E75EFE4F8081909167
:1003600001019E3120F01092010101C08FEF9091A8
:10037000C10090689093C1000895CF93DF93EC0182
:100380008991882319F00E942901FACF8DE00E94FB
:1003900029018AE0DF91CF910C942901209101017C
:1003A0009091020181E0291301C080E008958091BD
:1003B000020190910101891B87FF02C0825EFCCF80
:1003C00008958091030190910401891B87FF02C069
:1003D0008C5EFCCF08958091C00087FFFCCF809198
:1003E000C6009091C00095FFFCCF8093C600F3CF6C
:1003F000E1E8F0E09081987F982390830895E0E809
:10040000F0E090819F70982390830895E0E8F0E0F9
:1004100090811082E1E8F0E09081947098239083BD
:1004200008950F931F93CF93DF931092850010923E
:100430008400109280001092810010928700109228
:10044000860008E810E0F80111821082CAE8D0E0C6
:100450001982188285E00E9406028AE00E94FF014C
:100460008FE790E0F801918380839983888381E00E
:10047000DF91CF911F910F910C94F8010E944800D9
:10048000C2E00E94920088B18C2788B9FACFF89414
:02049000FFCF9C
:00000001FF
